:400000000080002011000000050E0000050E000008B5044B1A6803F53F5302331A6000F0F3FE00BFFA46004010B5054C237833B9044B13B10448AFF300800123237010BD60
:400040001081FF1F00000000E4100000084B10B51BB108480849AFF300800848036803B910BD074B002BFBD0BDE81040184700BF00000000E41000001481FF1F0881FF1F49
:400080000000000008B562B6034800F03FF8024800F048FEFBE700BF2C81FF1F038901339BB20381B3F5807F07D144F20C03C35C1BB1002244F20C03C2547047002903DA93
:4000C0000389194401817047038919440181704738B504460C30218944F20C03E25C00F043FE05462046FFF7D9FF284638BD00BF38B50546FFF7ECFF04462846FFF7E8FF9C
:4001000084EA002080B238BD40B2704710B50446012244F20C03C2540C3000F011FE204600F060FE10BD00BF70B504460139FE2900F2C385DFE811F001010A011101C105A2
:40014000C1051601FF001B012D0133013D01C105C1054201FF00C105470150015701C105C1055C01FF0061016B0171017B01C105C1058001FF00850196019F01A901C10585
:40018000C105AE01FF00B301C401C901D601C105C105DB01FF00E001F101F6010002FF00FF000502FF001002210227023402C105C1053902FF00C1053E02420246024A0242
:4001C0004E0252025C026002C105640268026C02700274027E0282028602C1058A028E0292029602A002A402A802AC02C105B002B402B802C202C602CA02CE02D202C105CB
:40020000D602DA02E402E802EC02F002F402F802C105FC0206030A03110318031F0326032D03FF0034033B033F03430347034B034F035303C1055D03630369036F037503C8
:400240007B0381038D03920398039E03A403AA03B003B603C203C703CD03D303D903DF03E503EB03F703FB03010407040D04130419041F042B042F0435043B0441044704B8
:400280004D045304C1055F0465046B04710477047D0483048F04930499049F04A504AB04B104B704C105C105C105C105C105C105C105C304C105CC04CE04D004DC04E10439
:4002C000E804EA04F104F304FF00F504C105F704F904FB04FD04FF0401050305C1050F05110513051A051C051E052005C1052C05C1052E053505370543054505C105C1055D
:400300004F05510558055A05C1056405C105C105C1056E057505770586058805C105C105950597059E05A005AA05AE05C105C105C105BB05BF05002070BDFFF7C9FEA070F9
:400340002046FFF7C5FEE070032070BD0C306188627800F02FFD022070BD438801334380022070BDFFF7B4FEE070022070BDFFF7BFFE054604F10C0630462946A27A00F006
:4003800019FD691C304689B2002200F013FD052070BDC28843881344C380022070BD0C30618844F20C03E25C00F0DEFC6070022070BD4388013B4380022070BDFFF788FE59
:4003C000A070022070BDFFF783FE20712046FFF77FFE6071032070BD0C30A188627800F0E9FC022070BD838801338380022070BDFFF76EFE6071022070BDFFF769FEFFF7D3
:4004000083FE01462046FFF759FE032070BDC28883881344C380022070BD0C30A18844F20C03E25C00F0A0FC6070022070BD8388013B8380022070BDFFF74AFE2071022096
:4004400070BDFFF745FEFFF75FFE0546204600F0D1FC002800F0338420462946FFF72EFE032070BDFFF734FEA0712046FFF730FEE071032070BD0C30E188627800F09AFCD6
:40048000E3880133E380022070BDC3880133C380022070BDFFF71CFEE071022070BDFFF717FEFFF731FE0546204600F0A3FC002800F0078420462946FFF700FE032070BDFE
:4004C000C3885B00C380022070BD0C30E18844F20C03E25C00F048FC6070E3880133E380022070BDC388013BC380022070BDFFF7EFFDA071022070BDFFF7EAFDFFF704FE17
:400500000546204600F076FC002800F0DC8320462946FFF7D3FD032070BDFFF7E9FD6081032070BD0C30E188627800F043FCE388013BE380022070BD43890133438102204C
:4005400070BDC588FFF7C4FD024604F10C00294600F030FC032070BDFFF7BAFDFFF7D4FD0546204600F04AFC002800F0AE8320462946FFF7A3FD032070BDC288438913445A
:40058000C380022070BD0C30E18844F20C03E25C00F0EAFB6070E388013BE380022070BD4389013B4381022070BDFFF791FD6070022070BD8378C370012070BD4379C3705A
:4005C000012070BD0379C370012070BDC379C370012070BD8379C370012070BD0C30E18844F20C03E25C00F0BFFBE070022070BD4378C370012070BDC3788370012070BD4D
:4006000043798370012070BD03798370012070BDC3798370012070BD83798370012070BD0C30E18844F20C03E25C00F09DFBA070022070BD43788370012070BDC37843714C
:40064000012070BD83784371012070BD03794371012070BDC3794371012070BD83794371012070BD0C30E18844F20C03E25C00F07BFB6071022070BD43784371012070BD0A
:40068000C3780371012070BD83780371012070BD43790371012070BDC3790371012070BD83790371012070BD0C30E18844F20C03E25C00F059FB2071022070BD43780371CB
:4006C000012070BDC378C371012070BD8378C371012070BD4379C371012070BD0379C371012070BD8379C371012070BD0C30E18844F20C03E25C00F037FBE071022070BDCE
:400700004378C371012070BDC3788371012070BD83788371012070BD43798371012070BD03798371012070BDC3798371012070BD0C30E18844F20C03E25C00F015FBA0714F
:40074000022070BD43788371012070BD0C30E188E27800F02FFB022070BD0C30E188A27800F028FB022070BD0C30E188627900F021FB022070BD0C30E188227900F01AFB84
:40078000022070BD0C30E188E27900F013FB022070BD0C30E188A27900F00CFB022070BD0C30E188627800F005FB022070BDC3784370012070BD83784370012070BD4379E5
:4007C0004370012070BD03794370012070BDC3794370012070BD83794370012070BD0C30E18844F20C03E25C00F0BEFA6070022070BD4278C37813444370012070BD42784B
:40080000837813444370012070BD4278437913444370012070BD4278037913444370012070BD4278C37913444370012070BD4278837913444370012070BD45780C30E1884B
:4008400044F20C03E25C00F08FFA28446070022070BD43785B004370012070BD4278C37813444370012070BD4278837813444370012070BD4278437913444370012070BDB2
:400880004278037913444370012070BD4278C37913444370012070BD4278837913444370012070BD45780C30E18844F20C03E25C00F05AFA28446070022070BD43785B0084
:4008C0004370012070BD4378C2789B1A4370012070BD437882789B1A4370012070BD437842799B1A4370012070BD437802799B1A4370012070BD4378C2799B1A437001204A
:4009000070BD437882799B1A4370012070BD45780C30E18844F20C03E25C00F025FA281A6070022070BD00234370012070BD4378C2789B1A4370012070BD437882789B1A90
:400940004370012070BD437842799B1A4370012070BD437802799B1A4370012070BD4378C2799B1A4370012070BD437882799B1A4370012070BD45780C30E18844F20C039F
:40098000E25C00F0F1F9281A6070022070BD00234370012070BD4278C37813404370012070BD4278837813404370012070BD4278437913404370012070BD427803791340F5
:4009C0004370012070BD4278C37913404370012070BD4278837913404370012070BD45780C30E18844F20C03E25C00F0BDF928406070022070BD4278C37853404370012034
:400A000070BD4278837853404370012070BD4278437953404370012070BD4278037953404370012070BD4278C37953404370012070BD4278837953404370012070BD4578DB
:400A40000C30E18844F20C03E25C00F08DF968406070022070BD00234370012070BD4278C37813434370012070BD4278837813434370012070BD42784379134343700120F5
:400A800070BD4278037913434370012070BD4278C37913434370012070BD4278837913434370012070BD45780C30E18844F20C03E25C00F059F928436070022070BD0C3035
:400AC000E18844F20C03E25C00F04EF9022070BD052070BD032070BDFFF70AFB0546204600F088F9002840F0F2802581042070BDFFF7FEFA2081042070BDFFF7F9FA2046D5
:400B000000F078F9032070BD042070BD4578FFF7DFFA28446070022070BD042070BD052070BD042070BD062070BD062070BD022070BD042070BD052070BD032070BDFFF7CA
:400B4000D7FA0546204600F059F9002840F0C1806581042070BD062070BD042070BD4578FFF7B6FA281A6070022070BD042070BD052070BD042070BDFFF7BAFA054620462A
:400B800000F03CF9002800F0A6802581042070BD062070BD4578FFF79BFA281A6070022070BD042070BDFFF793FAA0F5807104F10C0089B2627800F0FDF8032070BD032017
:400BC00070BD8178A1F580710C3089B2627800F0F1F8022070BD042070BD4578FFF778FA28406070022070BD042070BDFFF770FAFFF78AFA01462046FFF760FA042070BD59
:400C0000FFF776FA014604F10C00627800F0D2F8042070BD4578FFF75BFA68406070022070BD042070BDFFF753FAA0F5807104F10C0089B244F20C03E25C00F095F860702C
:400C4000032070BD032070BD8178A1F580710C3089B244F20C03E25C00F086F86070022070BD042070BD4578FFF732FA28436070022070BD042070BD4589FFF739FAC0B259
:400C8000FFF742FA2844E080032070BDC3884381022070BDFFF72CFA014604F10C0044F20C03E25C00F060F86070042070BDFFF70FFA022070BD042070BD012070BD022029
:400CC00070BD022070BD022070BD022070BD032070BD032070BD032070BD00BF09B1002070470220704700BF38B505460C46FFF7D5F9CB2C10D105F10C00298944F20C03E3
:400D0000EA5C00F031F804462846FFF7C7F928462146FFF7E3FF38BD28462146FFF704FA38BD00BF10B504460C30218944F20C03E25C00F019F801462046FFF7D5FF10BD0A
:400D4000002302E00022C2540133B3F5005FF9DB002305E0C21802F50052002111700133B3F5005FF6DB704711F4004F08D122B1FF2902D80D4B585C70470D4B585C70470F
:400D800081F40043B3F5005F04D20144A1F5C0410878704701F580439BB2B3F5005F03D2A1F54041405C704700207047E8900000E810000011F4004F12D081F40043B3F562
:400DC000005F04D20144A1F5C0410A70704701F580439BB2B3F5005F02D2A1F540414254704700BF0023038043808380C3800381438170470078C009704700BF0078C0F31D
:400E000000107047FEE700BF08B5104E104D16E029686B68AC68002204E051F8040B43F8040B0432A242F8D1E868002203E0002143F8041B04328242F9D11035013E002E90
:400E4000E6D100F015F9FFF71DF9FEE7010000003C92000008B5124A124B1A60124A136843F40073136000230AE0032B03D80F4A52F8231000E00E490E4A42F823100133FD
:400E80002F2BF2D90C4B1A780C4B1A70094A0C4B1A6000F087F800220A4B1A6008BD00BF0004FA050CED00E014ED00E000000000050E00000080FF1FBC7600400481FF1FB8
:400EC00008ED00E00081FF1FFEE700BF064B1B78DBB203F00701054A11701B09013213704422034B1A707047CF0100496E5800407658004008B50A46002100F0EAF808BDDD
:400F000038B502221E4B1A7008224FF040231A70032103F5007319701A4B1B78DBB21A490B701A4B1A8041F25122023B1A80002419250CE0164B1B7803F0010343EA4404B2
:400F400004F003044FF4F07000F082F8013D0DB1032CEFD115B90320FFF7B6FF0D4B4FF480721A8007221A7000220B490A704820023108701A700222033B1A7038BD00BFDB
:400F80000043004008010049A14600402242004025420040044000400640004008B500F08DF808BD38B572B6214A137843F00403137000240CE01F4963001A1952000A4473
:400FC00023445B00C8589188FFF794FF0134E4B2072CF0D9184A137843F0020313701032137843F002031370144C237843F040032370A2F58632513A137843F01003137044
:40100000A03A137843F0080313700D4D61232B70FFF776FF81232B7001220A4B1A70FFF755FF094821460E22FFF7B8FF38BD00BFE8460040E891000003500140A043004034
:401040000048004004000840B0430040000000000230800803D000BF01380046FCD17047EFF3108072B6704780F31088704700BF0E4B70B51E460E4C0025E41AA410A5424E
:4010800004D056F8253098470135F8E708F0C4F8084B094C1E46E41AA4100025A54204D056F8253098470135F8E770BD2492000024920000249200002C92000010B5431EA9
:4010C0000A44914204D011F8014B03F8014FF8E710BD03460244934202D003F8011BFAE77047000000000000C30C020000000000C30C02FFFFFFFFFFFFFFFFFFFFFFFFFF35
:40110000FFFFFFFFFFFFFFFFFFFFFFFFFFFFFFFF87E15F1600195E2356D5E1E9FFFFFFFFFFFFFFFFFFFFFFFFC37E01FFFFFFFFFFC3BE26FFFFFFFFFFC3BE26FFFFFFFFFFDE
:40114000C35B00F5E5D5C5CD6B003E01E0CCC1D1E1F1D9F0CDEF78009F00A400BA00EA27F0E1FE072808FE06C83E06E0E1C9F001FE5520083E29E0CB3E011808FE29C03EA9
:4011800055E0CBAFE002C9F001E0D0C9F001E0D0F0CBFE29C8F0CFE0013EFFE0CF3E80E002C9F001E0D0F0CBFE29C8F0CFE001FBCD980A3E80E002C9F0CDFE02C0AFE00F52
:4011C000FBC9FFFFFFFFFFFFFFFFFFFFFFFFFFFFFFFFFFFFFFFFFFFFFFFFFFFFFFFFFFFFFFFFFFFFFFFFFFFF00C35001CEED6666CC0D000B03730083000C000D0008111F88
:401200008889000EDCCC6EE6DDDDD999BBBB67636E0EECCCDDDC999FBBB9333E544554524953000000000000000000000000000000000001010A16BFC30C02CDE329F04186
:40124000E60320FA46F041E60320FA7EA0C97B8627227A8E27223E008E27773E01E0E0D03E99323277C9F5C5D5E5F0CEA72812F0CBFE29200CAFE0CEF0CFE0012102FF3645
:4012800081CDE021CDCC23CDB723CD9E23CD8C23CD7D23CD6E23CD5F23CD5023CD4123CD3223CD2323CDF822CDE922CDDA22CDCB22CDBC22CDAD22CD9E22CDD71ECDB6FF58
:4012C000CDCA18FACEC0A7281AF098FE032014216D98CD3B243E01E0E0216D9CCD3B24AFEACEC021E2FF34AFE043E0423CE085E1D1C1F1D9AF21FFDF0E100600320520FC16
:401300000D20F93E01F3E00FE0FFAFE042E043E0A4E041E001E0023E80E040F044FE9420FA3E03E0403EE4E047E0483EC4E0492126FF3E80323EFF3236773E01EA002031A4
:40134000FFCFAF21FFDF0600320520FC21FFCF0E100600320520FC0D20F921FF9F0E20AF0600320520FC0D20F921FFFE0600320520FC21FEFF0680320520FC0EB6060C218C
:401380007F2A2AE20C0520FACD9527CDF37F3E09E0FF3E37E0C03E1CE0C13E24E0E13E80E040FBAFE00FE04AE04BE006CDA629CDF802CDF07FF080E60FFE0FCA1B0221A6BB
:4013C000FF06027EA72801352C0520F7F0C5A728043E09E0FFF085A728FBAFE085C3C402F0E1EFCE1BE21C44127B12061D261DAE03790444148C14071AC01D161F1F1F25E5
:4014000015B0147B15BF1529167A16EB16131977062C072508E408310BEB0CD20A320D230E1211990D8A0ECE1D411E690393036711E611FC111C12C705F705B3120513240B
:4014400013511367137E13B513E5131B13A003EA27CD2028CDD72711074ACDEB27CD8A172100C31150641A22137CFEC420F83ED3E0403EFAE0A63E25E0E1C9F0A6A7C03E54
:40148000FAE0A63E35E0E1C9F081A72004F0A6A7C03E06E0E1C9CD2028AFE0E9E098E09CE09BE0FBE09FE0E3E0C7CD9322CD5126CDD7272100C83E2F227CFECC20F821015F
:4014C000C8CDA926210CC8CDA9262141CA060C3E8E220520FC116F4BCDEB27CD8A172100C036802C36102C36583E03EAE8DF3ED3E0403E07E0E13E7DE0A63E04E0C6F0E4A9
:40150000A7C03E13E0C6C93E37E0C03E09E0C2AFE0C5E0B0E0EDE0EA3E62E0EB3EB0E0ECF0E4FE023E02201A3E77E0C03E09E0C33E02E0C43E63E0EB3EB0E0EC3E11E0B070
:401540003E01E0E43E0AE0E1CD2028CDAD2711D74CCDEB27CD8A173ED3E040C93EFFE0E9C9F0A6A7200A21C6FF35289B3E7DE0A6CD980A3E55E0013E80E002F0CCA7280AC1
:40158000F0CBA7203AAFE0CC1867F08147F0C5CB502048CB602053CB682054CB58C8A73E08282C78FE08C0F0CBFE2928123E29E0013E81E002F0CCA728FBF0CBA728323E71
:4015C0002AE0E1AFE0A6E0C2E0C3E0C4E0E4C9F5F080CB7F2802E0F4F118E6EE01E0C5A73E1028023E60EA01C0C9A7C0AF18ECA7C8AF18E9F0E4A7C8CD980AAFE0013E80BB
:40160000E002F081CB5F280D3E33E0013E81E0023E06E0E1C921B0FFF0E4FE0206102802061D7EB8C03E06E0E1C9F0E4A7C8F0E9FEFFC8F0EAA728053DE0EA181CF0EB6760
:40164000F0EC6F2A47F0EDA8A0E08178E0ED2AE0EA7CE0EB7DE0EC1803AFE081F080E0EEF0EDE080C9AFE0ED18EFC9F0E4A7C8F0E9FEFFC0F08047F0EDB82819F0EB67F00C
:40168000EC6FF0ED22F0EA227CE0EB7DE0EC78E0EDAFE0EAC9F0EA3CE0EAC9F0E4A7C8F0E9A7C0F0EEE080C92102FFCBFE180A3E03E0CDF0CBFE2920EFCD4F143E80EA10B6
:4016C000C2CD7126E0CEAFE001E0CFE0DCE0D2E0D3E0D4E0D5E0E3CDF37F3E2BE0E1C9F0CBFE292816F0F0A7281EAFE0F01101C2CD9214CD1715CD7126180DF081CB472080
:4017000007CB5F2003CDB014F0CBFE29281EF0CCA7C8AFE0CC3E39E0CFF0D0FE50282D47F0C1B8C878E0C13E01E0F0C9F081CB5F2022CB47201EF0CCA7C8AFE0CCF0CFFEB4
:40174000502809F0C1E0CF3E01E0CEC9CD8A173E16E0E1C93E5018ED2102FFCBFE181F3E03E0CDF0CBFE2920EFCDA10ACDA10ACDA10A06002100C3CDA10A220520F9CD20FB
:4017800028CDAD27111452CDEB27CD8A173E2FCDDD1F3E03E0CEAFE001E0CFE0DCE0D2E0D3E0D4E0D5E0E3E0CC2100C4060A3E28220520FCF0D6A7C26D07CD17153ED3E014
:4017C000402180C01105070620CD25072100C211ED260E02CD7617CD0E08CD7126AFE0D7E0D8E0D9E0DAE0DB3E17E0E1C94028AE004030AE204828AF004830AF207828C00F
:40180000007830C0208028C1008030C1201A22130520FAC9F0CBFE292823F0CCA72813F0D0FE60282DFE063002E0ACF0ADE0CFAFE0CC1110C2CD661721ADFF1868F081CB92
:401840005F28043E60184DF0CCA72850F0CFFE602038CD8A17F0D6A720183E18E0E1F0CBFE29C0AFE0A03E0611E0FF21A2C9CD681BC9F0CBFE29C22808AFE0A03E0611E07E
:40188000FF21A2C9CD681BC32808F0D0FE063002E0ADF0ACE0CFAFE0CC3CE0CE1100C2CD661721ACFF7ECB602014CB682022CB702024CB782813FE03300FC6031805FE05E6
:4018C00028073C773E01EAE0DFCD0E08CD7126C9A728F63D18EDFE0338EFD60318E5406040704080506050705080786078707880886088708880F0AC1101C221F607CD5569
:4019000017F0AD1111C2210208CD5517C9CD2028AFEA10C2E098E09CE09BE0FBE09FE0CCE001E0CEE0D0E0CFE0D1CD5126CD9322CDF21FAFE0E3CD8A17117C53D53E01E0F6
:40194000A9E0C5CDEB27D121009CCDEE2711392821639C0E0ACD7D1F2100C211BF26CDB6262110C211C726CDB6262151993E30E09E36002D3603CDE81AAFE0A0F0CBFE2928
:4019800011D408F0AC280511C408F0AD21B09877269C772180C00610CD25073E77E0C03ED3E0403E19E0E13E01E0CDC91884C000188CC0202084C100208CC1201884AE00FF
:4019C000188CAE202084AF00208CAF203E08E0FFAFE00FF0CBFE29C2F609CD980ACD980AAFE0CC3E29E0013E81E002F0CCA728FBF001FE5520E41116000E0A2102C9060A16
:401A0000AFE0CCCD980A2AE0013E81E002F0CCA728FB0520EB190D20E5F0ACFE05283D2122CA114000193CFE0520FA1122CA0E0A060A1A221C0520FAD511D6FF19D1E52154
:401A4000D6FF19E5D1E10D20E711D6FF060A7CFEC828093E2F220520FC1918F0CD980ACD980AAFE0CC3E29E0013E81E002F0CCA728FBF001FE5520E42100C30600AFE0CC5E
:401A80002ACD980AE0013E81E002F0CCA728FB0420EBCD980ACD980AAFE0CC3E30E0013E81E002F0CCA728FBF001FE5620E4CD8C0A3E09E0FF3E1CE0E13E02E0E33E03E0B6
:401AC000CDF0CBFE2928052102FFCBFE2100C32AEA03C22AEA13C27CE0AF7DE0B0C9F0AD3C472142CA11C0FF0528031918FACD980AAFE0CC3E55E0013E80E002F0CCA728B7
:401B0000FBF001FE2920E71116000E0A060AAFE0CCE0013E80E002F0CCA728FBF001220520EC190D20E6CD980AAFE0CC3E55E0013E80E002F0CCA728FBF001FE2920E70601
:401B4000002100C3AFE0CCE0013E80E002F0CCA728FBF001220420ECCD980AAFE0CC3E56E0013E80E002F0CCA728FBF001FE3020E7C3C6092142CA3E80060A220520FCC9D8
:401B8000C506FA400520FCC1C9E5C5F0FCE6FC4F2603F00447AF05280A3C3C3C3CFE1C28F418F357F0AE5F252807B2B1E6FCB928E17AE0AE7BE0FCC1E1C93E01E0FFF0E3C9
:401BC000A7202706440E20CD3F113E02E0CDFADEC0A728053E80EA10C2CD8326CD9626CD1715AFE0D63E1AE0E1C9FE05C02130C0061236F02336102336B6233680230520A5
:401C0000F1FAFFC3060A2100C43D28062C0520F918F2362F3E03E0CEC93E01E0FF219CC0AF2236502C36272C3600CD0D1CCD881CCDBB24CD9C20CD3E21CDA125CD4D22CDE5
:401C40009B0BF0D5A728143E77E0CFE0B13EAAE0D13E1BE0E13E05E0A71810F0E1FE01201B3EAAE0CFE0B13E77E0D1AFE0DCE0D2E0D3E0D4F0CBFE292002E0CECDF00BCD18
:401C80008C0CC91120002102C83E2F0E12060AE5BE200A230520F9E1190D20F1E5E179E0B1FE0CFAE9DF3007FE08C0CD1715C9FE08C8FAF0DFFE02C83E08EAE8DFC9F0CBAF
:401CC000FE2928523E01EA7FDFE0ABF0CFE0F1AFE0F2E0CFCDCB1CC9F0CCA7C82130C0110400AFE0CCF0D0FEAA2861FE772849FE9428CB47A72851CB7F206FFE1330173E16
:401D000012904F0C3E987719D6080520F93EF00D2804771918F9F0DCA72807F680E0B1AFE0DC3EFFE0D0F0CBFE29F0B12007E0CF3E01E0CEC9E0CFC9F0D1FEAA28263E7748
:401D4000E0D13E01E0E118CE0E1318C1F0D1FE7728123EAAE0D13E1BE0E13E05E0A70E01061218A03E01E0EF18ACE67FFE0530A6E0D218AEF0D3A72807CB7FC8E607180AC4
:401D8000F0D2A7C8E0D3AFE0D2C94FC52122C811E0FF190D20FC1122C80E11060A1A221C0520FAD511160019D1E521160019E5D1E10D20E7C11100C4060A1A22130520FA49
:401DC000D511160019D10D20EC3E02E0E3E0D4AFE0D3C9F0A6A7C03E01E0FF3E03E0CDF0D1FE77200CF0D0FEAA20103E01E0EF180AFEAA2006F0D0FE7728F006340E43CD5C
:401E00003F11AFE0E3F0D1FEAA3E1E20023E1DE0E13E28E0A63E1DE0C6C9F0A6A7C0F0EFA72005F0D73CE0D7CD6F0F11F926F0CBFE292803110B272100C20E03CD76173E6E
:401E400019E0A6F0EFA728052120C236803E03CD73263E20E0E13E09EAE8DFF0D7FE05C03E11EAE8DFC9F0D7FE052007F0C6A728081822F081CB5F281C3E60E0CFE0CE189C
:401E80001D3E01E0FFF0CC280CF0CBFE2928D7F0D0FE602809CDBD0D3E03CD7326C93E1FE0E1E0CCC9F0A6A7202321C6FF353E19E0A6CD600F2101C27EEE3022FE60CC1796
:401EC0000F2CF57EEE01772E1332F12D77F0D7FE052028F0C62121C2FE06281BFE08301B7EFE723006FE69C83434C936692C2C36573E06EAE0DFC92D3680C9F0A7A7C03EBC
:401F00000FE0A72123C27EEE0177C9F0A6A7C0F0EFA72005F0D83CE0D8CD6F0F111D27F0CBFE2928031129272100C20E02CD76173E19E0A6F0EFA728052110C236803E0220
:401F4000CD73263E21E0E13E09EAE8DFF0D8FE05C03E11EAE8DFC9F0D8FE052007F0C6A728081822F081CB5F281C3E60E0CFE0CE181D3E01E0FFF0CC280CF0CBFE2928D7D8
:401F8000F0D0FE602809CDAE0E3E02CD7326C93E1FE0E1E0CCC9F0A6A7201C21C6FF353E19E0A6CD600F2111C27EEE0822FE68CC170F2C7EEE0177F0D8FE052032F0C621B4
:401FC00001C2FE052825FE062811FE0830217EFE723018FE61C834343434C92D36002C36612C2C36563E06EAE0DFC92D3680C9F0A7A7C03E0FE0A72103C27EEE0177C9F57E
:40200000E5F0D7FE05281AF0D8FE052814F0CBFE29200E2160C00624113C0F1A22130520FAE1F1C942300D004238B20042400E0042481C0042580E0042601D004268B50021
:402040004270BB0042781D002160C01104000609AF77190520FBC9CD202821AC55010010CDE427CD952721009811E4540604CDF0272180990606CDF027F0CBFE2920222187
:40208000419836BD2C36B22C362E2C36BE2C362E21019A36B42C36B52C36BB2C362E2C36BCF0EFA72003CD8510F0D7A72849FE05201621A598060BF0CBFE2911F3102803C5
:4020C00011FE10CDD8103E044FF0CBFE293E9320023E8FE0A021E799CD6A10F0D9A728173EACE0A021F0990E01CD6A1021A6981109110609CDD810F0D8A7283EFE052016FC
:4021000021A598060BF0CBFE2911FE10280311F310CDD8103E044FF0CBFE293E8F20023E93E0A0212798CD6A10F0DAA7280C3EACE0A02130980E01CD6A10F0DBA7280B214D
:40214000A79811ED100606CDD8103ED3E040CD8A17C9F0A0E51120000602E5223C773CE1190520F6E1110300190D20E6C921D7FF11D8FFF0D9A7203AF0DAA7203CF0DBA75E
:4021800020217EFE0428111AFE04C03E0512180A1AFE03C03E0318053605AFE0DBAFE0D9E0DAC97EFE042006E0D9AFE0DBC9E0DA18F87EFE0528E118DB1AFE0528CD18D432
:4021C000C5E51A22130520FAE111200019C13EB6220520FCC9B0B1B2B3B13EB4B5BB2EBC2F2D2E3D0E3EBDB22EBE2E2F2D2E3D0E3EB5B041B53D1DB5BEB13E01E0FFF0A6DC
:40220000A7C0CD8A17AFE0EF06270E79CD3F11CDF37FF0D7FE05280AF0D8FE0528043E01E0D63E16E0E1C9F0CCA72814AFE0CCF0CBFE29F0D02011B828083E02E0CFE0CE23
:40224000E1C979E0CFE0CEC9B9C878E0CFE1C9CDB21121E69C111B140607CD371421E79C1122140607CD371421089D36722C36C421289D36B72C36B81171272100C20E03FD
:40228000CD76173E03CD73263EDBE0403EBBE0A63E27E0E13E10EAE8DFC9CD202821AC55010010CDE42721FF9FCD982721C09D11C4510604CDF02721EC9C1129140607CDA9
:4022C000371421ED9C1130140607CD3714C9F0A6A7C02110C236002E2036003EFFE0A63E28E0E1C9F0A6A72804CDFA13C93E29E0E12113C236352E2336353EFFE0A63E2FC8
:40230000CDD71FC9F0A6A72804CDFA13C93E02E0E121089D062FCDFF1921099DCDFF1921289DCDFF1921299DCDFF19C9F0A6A7202E3E0AE0A62101C2357EFE582021211060
:40234000C236002CC62022364C2C36402E2036803E03CD73263E03E0E13E04EAF8DFC9CDFA13C9F0A6A7201D3E0AE0A62111C2352E01357EFED0200D3E9CE0C93E82E0CAB6
:402380003E2CE0E1C9F0A7A7200B3E06E0A72113C27EEE01773E03CD7326C9F0A6A7C03E06E0A6F0CAD6825F160021F51219E5D1F0C967F0CA6F1ACDFE19E51120001906EA
:4023C000B6CDFF19E1233E02EAE0DF7CE0C97DE0CAFE92C03EFFE0A63E2DE0E1C9B3BC3DBEBBB51DB2BDB51D2EBC3D0E3EF0A6A7C0CD2028CDAD27CD93223E93E0403E05ED
:40240000E0E1C9F0A6A7C03E2EE0E1C9CDB2111183272100C20E03CD7617F0F3EA03C23E03CD7326AFE0F33EDBE0403EBBE0A63E2FE0E13E10EAE8DFC9F0A6A7C02110C22D
:4024400036002E2036003EA0E0A63E30E0E1C9F0A6A72804CDFA13C93E31E0E13E80E0A63E2FCDD71FC9F0A6A7202E3E0AE0A62101C2357EFE6A20212110C236002CC61009
:402480002236542C365C2E2036803E03CD73263E32E0E13E04EAF8DFC9CDFA13C9F0A6A720153E0AE0A62111C2352E01357EFEE020053E33E0E1C9F0A7A7200B3E06E0A7EA
:4024C0002113C27EEE01773E03CD7326C9CD2028CDAD27CDF37FCD93223E93E0403E10E0E1C9F0A7A7C03E0AE0A73E03EAF8DF06022110C27EEE80772E200520F73E03CDAD
:402500007326C9C2CACACACACACAC3CB5848484848C8737373737373C97474747474741A7713D511200019D10520F4C93E01E0FFAFE001E002E00FCD2028CDAD2711D74CDB
:40254000CDEB27CD8A172100C211CF260E02CD76171101C2CD8D14F0C01E121213FE373E1C28023E1D12CD7126CD17153ED3E0403E0EE0E1C93E01EAE0DFF0C1F5D61C87E3
:402580004F060021A814092A12137E1213F112C970377077803780771100C2CD661721C1FF7ECB58C26315CB40C26315CB4820411CCB602026CB68202DCB702016CB78CAC9
:4025C0005F15FE1E3009C60277CD8D14CD1715CD7126C9FE1E38F8D60218EDFE1D28F0FE1F28EC3C18E2FE1C28E5FE1E28E13D18D7F5F0C5A72803F118B6F13E0E185BF029
:40260000C1D617FE0820023EFFEAE8DFC91110C2CD661721C0FF7ECB582030CB4020401C1CCB60200ECB68281EFE37281A3E37061C1808FE7728103E77061D77F53E01EA52
:40264000E0DFF112137812CD7126C93E02EAE0DFF0C0FE373E1028023E12E0E1AF18E73E0F18F7CD2028113F4ECDEB27CDFC18CD8A172100C211DB260E01CD76171101C25A
:40268000F0C2211516CD4E17CD7126CD9517CDCA183ED3E0403E11E0E1F0C7A72004CD1715C93E15E0E1C91100C2CD661721C2FF3E0ACB5820EECB4020EA3E08CB4820E412
:4026C0007ECB602014CB682026CB702028CB78281AFE053016C6051805FE09280E3C771101C2211516CD4E17CD9517CD7126C9A728F93D18E9FE0538F2D60518E1403040AC
:402700004040504060407050305040505050605070CD202811A74FCDEB27CD8A172100C211E1260E02CD76171101C2F0C321D216CD4E171111C2F0C4214117CD4E17CD7148
:4027400026CDAF17CDCA183ED3E0403E13E0E1F0C7A72004CD1715C93E15E0E1C9E0E1AF12C91100C2CD661721C3FF3E0ACB5820EC3E14CB4020E63E08CB4820E07ECB6066
:402780002014CB682026CB702028CB78281AFE053016C6051805FE09280E3C771101C221D216CD4E17CDAF17CD7126C9A728F93D18E9FE0538F2D60518E140184028403835
:4027C0004048405850185028503850485058E0E1AF12C91110C2CD661721C4FF3E0ACB5820ECCB4020E83E13CB4820E27ECB602014CB682026CB702028CB78281AFE033036
:4028000016C6031805FE05280E3C771111C2214117CD4E17CDAF17CD7126C9A728F93D18E9FE0338F2D60318E140704080409050705080509000F53E01EAE0DFF1F5874F15
:402840000600092A12137E1213F1C62012C9F08147F0A6A7C03E10E0A61AEE8012C9E506061A22130520FAE13E10856F0D20EF3680C9AF2100C006A0220520FCC9CDFC1879
:40288000F0C22154D6111B00A728043D1918F92323E5D1CD0018C9CDFC18F0C32100D011A200A728043D1918F9F0C4111B00A728043D1918F92323E5D1CD0018C906037E4E
:4028C000E6F0200B1C3AE60F200F1C0520F1C97EE6F0CB37121C3AE60F121C0520F1C906033A121B0520FAC97AE0FB7BE0FC0E0321A2C0D506031A96381020052D1B0520A2
:40290000F5D11313130D20E8185ED1F0FB57F0FC5FD5C521060019E5D12B2B2B0D2805CDF71718F821A2C006033A121D0520FAC1D179E0C821120019E511060019E5D1E1BA
:402940000D28070606CDF91718F63E600605121B0520FB3E0A127AE0C97BE0CAAFE09CE0C63E01EAE8DFE0C711ACC9F0FB67F0FC6F0603E5D5C5CDD517C1D121200019E5DF
:40298000D1E1D511030019D10520E82B2B060311A4C9D50E062AA7280512130D20F7D1E521200019E5D1E10520E8CD51263E01E0E8C9F0E8A7C821A49911A4C90E06E5068E
:4029C000061A221C0520FA1C2C1C2C0D2811CB4120EDE111200019E5D13E30825718DFE1AFE0E8C921A4C91120003E600E03060EE5220520FCE1190D20F4C9F0C821E49947
:402A000011E0FF3D28031918FAF0C65F160019F0C957F0CA5FF0A6A720123E07E0A6F09CEE01E09C1A28023E2FCDFE19F08147F0804F3E17CB702037CB71202BCB78205840
:402A4000CB79204CCB40206CCB48C2EE19CB58C81ACDFE19CD1715AFE0C7F0C0FE373E1128023E13E0E1C9F0AA3DE0AAC03E09E0AA0626F0F4A7280206271AB8200A3E2E5A
:402A80003C123E01EAE0DFC9FE2F20F43E0A18F1F0AA3DE0AAC03E09E0AA0626F0F4A7280206271AFE0A20053E303D18D4FE2F20F97818CD1ACDFE193E02EAE0DFF0C63C2B
:402AC000FE06288CE0C6131AFE6020033E0A127AE0C97BE0CAC9F0C6A7C81ACDFE19F0C63DE0C61B18E947F041E60320FA70C9CD2028AFEA10C2E098E09CE09BE0FBE09F8A
:402B00003E2FCDD71FCDF21FCD5126AFE0E3CD8A17F0C011F73F21C3FFFE773E5028083EF121C2FF118F3ED5E0E67EE0A9CDEB27D121009CCDEE2711392821639C0E0ACDFF
:402B40007D1F2698F0E66FF0A977269C77F0F4A72807233627269836272100C211BF26CDB6262110C211C726CDB626215199F0C0FE773E252801AFE09EE60F32280236028A
:402B8000CDE81AFADEC0A728053E80EA10C2CD0720CD0720CD0720CD8326AFE0A0F0C0FE7720253E34E099F0C421B09877269C77A7281547F0E4A72805CD1B1B180A78113C
:402BC000C0FF21029ACD681B3ED3E040AFE0E1C9F0A95FF0F4A7280A3E0A83FE1538023E145F21061B1600197EE099E09AC934302C2824201B15100A090807060505040400
:402C000003030221C29911401B0E04060AE51A77E57CC630671A77E12C130520F1E1D511200019D10D20E4C9852F8286832F2F8082852F828482832F832F872F2F852F8381
:402C40002F868280812F832F86832F852F852F2F470528031918FAF004473E80052808FE8020F73E2F18F5FE2F2808F004E607F6801802E0A0F57DE60FFE0B200BF0A0FE16
:402C80002F2805F13E2F1801F177E5F5F0C5A7200411003019F177E1237DE60FFE0C20B7AFE0A07CE60FFE0A28061116001918A77DFE2C20F5C9CD0D1CF0ABA7C0CD0C0536
:402CC000CD4205CD8305CDBB24CD9C20CD3E21CDA125CD4D22CD911FCDB305C9CB57C8FADEC0EE01EADEC028093E80EA10C2CD9626C9AF18F6F080E60FFE0FCA1B02F0E490
:402D0000A7C0F081CB5F28D4F0C5A720452140FFF0ABEE01E0AB282ACBDE3E01EA7FDF214E99114E9D0604F041E60320FA2A12130520F43E80EA10C2EA00C2CD8326CD9634
:402D400026C9CB9E3E02EA7FDFFADEC0A728E6AF18E6F0CBFE29C0F0ABEE01E0AB28333E01EA7FDFF0D0E0F2F0CFE0F1CDCB1CC9F0ABA7C8F0CC2839AFE0CCF0CBFE2920BD
:402D8000083E94E0CFE0CEE1C9AFE0CFF0D0FE94281FF0F2E0D0F0F1E0CF3E02EA7FDFAFE0AB21EE98068E0E05CDFF192C0D20F9C9E1C921EE980E0511DD1C1ACDFE19138A
:402DC0002C0D20F7C9190A1E1C0E3E80EA00C2EA10C2CD8326CD9626AFE098E09CCD93223E87CDD71F3E46E0A63E0DE0E1C9F081CB472003CB5FC8AFE0E3F0C5A73E1620C4
:402E00000AF0C0FE373E1028023E12E0E1C9F0A6A7C02102C8118928CD0428F0C3A7282E1140002127C8CD841D1100012187C8CD841D11000321E7C8CD841D110012214762
:402E4000C9CD841D21A0C00603AF220520FC3E80E0A63E80EA00C2EA10C2CD8326CD9626CDF37F3E25E09E3E0BE0E1C9E521A0C00603AF220520FCF0C3470421A0C0CD6630
:402E8000010520F7E1060311A2C01AE6F0200A1AE60F200B1D0520F2C91AE6F0CB37221AE60F221D0520F2C9F0A6A7C03E01EAC6C03E05E0A6C9F0A6A7C02102C8110F516E
:402EC000CD0428CD8A172100C21135270E0ACD76173E102166C2772E7677210EC211311E060A1A222213D5110E0019D10520F3F0C4FE0520023E093C472100C2111000AF62
:402F000077190520FBF0C4C60AEAE8DF3E25E09E3E1BE0A63E23E0E1C91C0F1E322018261D282B3E0ACD7326C9F0A6FE1428F4A7C0210EC2111000060AE53520152C3A77C8
:402F40007DE6F0F6036F7EEE0177FE502823FE512825E1190520E23E0ACD7326FAE9DFA7C0CD8A17F0C4FE053E2628023E05E0E1C92D2D366718DB2D2D365D18D5AFEAC602
:402F8000C011C0C01A6F131A67B5CA3A262B7C121B7D1211010021C2C0D5CD660111C4C021A599CD362AAFE0A6D121A0C0CD660111A2C021259ACD3A2A3E02EAE0DFC9FA97
:402FC000C6C0A7C8FAC5C0FE0428B211400001239821ACC0A7282311000101839821B1C0FE01281611000301E39821B6C0FE02280911001201439921BBC0CDD925C9F081FF
:40300000A7C83E02E0E1C9F0A6A7C03E04EAE8DFF0C5A7280A3E3FE0A63E1BE0CC18373E2FCDD71F2143C8113E290E07CD7D1F2183C91176290E06CD7D1FF0C0FE3720147D
:4030400021A2C07E0658FE20300F04FE15300A04FE1030053E04E0E1C978E0F33E90E0A63E34E0E1C90608E51A22130520FAE1D511200019D10D20EDC9F0C0FE37C0F0E10A
:40308000A7C0F0E3FE05C021ACC00105007E114000A72017097E110001A7200F097E110003A72007091100127EA7C83600F0A94704C5D521A0C0CD6601D1C10520F3C9F511
:4030C0003E02E0E3F12102C80E12112000E5060A220520FCE1190D20F4C921C2CB1116000E023E2F060A220520FC190D20F6C92100C236002C36182C363F2CFA13C277E64E
:40310000FC4FF0E4A72005F0C5A7281D26C3F0B06F5E237CFEC420032100C37DE0B0F0D3A7282AF680E0D318242603F00447AF05280A3C3C3C3CFE1C28F418F357F0AE5F48
:40314000252807B2B1E6FCB928E17AE0AE7BEA13C2CD9626F09AE099C9FAC7C0A7280CF081E6B0FE802025AFEAC7C0F0A7A72029F098A72024F0E3A7201F3E03E0A721E596
:40318000FF341826F080E6B0FE8028CD21E5FF3600F099A728073DE099CD8326C9F098FE03C8F0E3A7C0F09AE0992101C27EE0A0C60877CD8326CD7325A7C8F0A02101C223
:4031C00077CD83263E01E098EAC7C0F0E5A7281B4FF0C0FE37283711C0C01A6F131A6706000D097C127D1B12AFE0E5FA01C2FE18C0FA02C2FE3FC021FBFF7EFE01200DCD12
:40320000F37F3E01E0E13E02EAF0DFC934C9AF0D28043C2718F95F160021A0C0CD66013E01EACEC018C2F098FE02C03E02EAF8DFAFE0A011A3C02142C806100E0AE52AFEF4
:403240002FCAD8210D20F7E17C12137D1213F0A03CE0A0D511200019D10520DF3E03E0983DE0A6F0A0A7C847219EFFF0C0FE772812788627223E008E2777301636992B36CE
:4032800099180F7EB790283B38392777E6F0FE902831780E0621ACC00600FE01281921B1C00601FE02281021B6C00602FE03280721BBC006040E073478E0DC79EAE0DFC94D
:4032C000E11890AFE09E18CAF098FE03C0F0A6A7C011A3C0F09CCB47203C1AA72852D63067131A6FF09CFE063E8C20023E2F0E0A220D20FC131AA720E5F09C3CE09CFE07D0
:4033000028053E0AE0A6C9AFE09C3E0DE0A63E01E0E3AFE098C91A67D6304F131A6F060A7EE56177E1230520F7131AA720E818C9CD072018DDF0A6A7C0F0E3FE01C011A315
:40334000C01A67131A6FD5E501E0FF09D1E5060A2A12130520FAE1E5D101E0FF097CFEC720EBD1131AA720DA2102C83E2F060A220520FCCD93223E02E0E3C921A3C0AF06FC
:4033800009220520FCC9F0E3FE02C021229A1122CACDAC24C9F0E3FE03C021029A1102CACDAC24C9F0E3FE04C021E29911E2C9CDAC24C9F0E3FE05C021C29911C2C9CDAC17
:4033C00024C9F0E3FE06C021A29911A2C9CDAC24C9F0E3FE07C02182991182C9CDAC24C9F0E3FE08C02162991162C9CDAC24F0C5A7F0E12008A7C03E01EAF8DFC9FE1AC08A
:40340000F0D4A728F23E05EAE0DFC9F0E3FE09C02142991142C9CDAC24C9F0E3FE0AC02122991122C9CDAC24C9F0E3FE0BC02102991102C9CDAC24C9F0E3FE0CC021E2988F
:4034400011E2C8CDAC24C9F0E3FE0DC021C29811C2C8CDAC24C9F0E3FE0EC021A29811A2C8CDAC24C9F0E3FE0FC02182981182C8CDAC24C9F0E3FE10C02162981162C8CDD6
:40348000AC24CD4B24C9F0E3FE11C02142981142C8CDAC24216D9CCD3B243E01E0E0C9F0E3FE12C02122981122C8CDAC24216D98CD3B24C9F0E3FE13C0EAC7C021029811B2
:4034C00002C8CDAC24AFE0E3F0C5A7F0E12048A7C0214E99119FFF0E02F0C0FE372808215099119EFF0E01CD3C2AF0C0FE372823F09EA7201E3E64E0A63E02EAE8DFF0C5B0
:40350000A72803E0D5C9F0C3FE093E0520023E22E0E1C9CD0720C9FE1AC0F0D4A728B2AFE0D4C9F0E1A7C0F0C0FE37C011A2C0CD362AC9F0E1A7C0F0C0FE37C021A9FF7EC2
:40354000FE14C8CD9D24F09F57E6F0C07AE60FCB3757F09EE6F0CB37B2B8D8C834CD9D24E60F4F21F19871269C7178E6F0280DCB374F7DFEF0280521F09818EA3E08EAE0B4
:40358000DFCDE81AC97E47A7C8AFB73C2705280218F847C9060A1A772C1C0520F9F0E33CE0E3C92100C27EFE80C82E037EE0A0F08147CB482012CB4028377EE603280335A2
:4035C00018147EF60377180E7EE603FE0328033418047EE6FC773E03EAE0DFCD8326CD7325A7280DAFEAE0DF2103C2F0A077CD83262102C2F08147F0804F7EE0A0CB603EB2
:4036000017200CCB61282DF0AA3DE0AAC03E09E0AA7EC60877CD83263E04EAE0DFCD7325A7C82102C2AFEAE0DFF0A077CD83263E01E0AAC9CB683E17200CCB6928F3F0AAF3
:403640003DE0AAC03E09E0AA7ED608773E04EAE0DFCD8326CD7325A7C818C72110C006042AE0B22AA72817E0B3E5C5CDE3297CC630677EFE2F200BC1E12C2C0520E2AFE0EF
:403680009BC9C1E13E01E09BC9F098FE01C02110C006042AE0B22AA7281DE0B3E5C5CDE329E5D1C1E1F041E60320FA7E127AC630572A122C0520DC3E02E0982100C23680BA
:4036C000C9FAC6C0FE022846D57EB728543D227E3C2777E60F020D2ACB37E60F280102C5F0C34704E5CD6601E10520F8C12323E521230009D1CD3A2AD1F0C3470421A0C021
:40370000E5CD6601E10520F83E02EAC6C0C911A2C021259ACD3A2A3E02EAE0DFAFEAC6C0C9D13E21E0A6AFEAC6C0FAC5C03CEAC5C0FE05C03E04E0E1C921ACC0061BAF2297
:403740000520FC21A0C00603220520FCC97EE6F0CB37127EE60F1C12C93E02E08FAFE08E3EC0E08D2100C2CD892AC93E01E08F3E10E08E3EC0E08D2100C2CD892AC93E011D
:40378000E08F3E20E08E3EC0E08D2110C2CD892AC906203E8E11200077190520FBC91AFEFFC8221318F8D900183F00800000FF00808F00800000FF0070371C0000003837F8
:4037C0001C000000403420000000401C2000000040742000000040682100000078682100000060602A80000060722A80200068383E8000006060368000006072368020007D
:4038000068383280000060602E80000068383C80000060603A8000006838308000803F40440000803F204A0000803F304600008077204800008087484C00008087584E005A
:403840000080674D50000080675D520000808F88540000808F98550000005F572C0000808050340000808060340020006F5758000080805534000080805B34002021FF9B1C
:403880000100043E2F320B78B120F8C92A12130B78B120F8C9CDC32701A000CDA427213F3211008301000DCDA427C9215F410138011100802A121312130B78B120F6C9CD86
:4038C000C32701A00DCDA427C9010010110080CDA427C92100980612E50E141A22130D20FAE1D511200019D10520EDC9060AE51AFEFF280E22130520F6E1D511200019D16F
:4039000018EAE13E02E0E3C9F0FFE0A1CB87E0FFF044FE9120FAF040E67FE040F0A1E0FFC92F2F11121D2F2F2F2F2F2929292F2F2F2F1C1D0A1B1D2F2F2F29292929292FA8
:403940002F2F2F2F1D182F2F2F2F2F2F29292F2F2F0C18171D12171E0E29292929292929292F2F100A160E2F2F2F2F292929292F2F1C121710150E2F2F2F2F2F002F262F27
:4039800004002F2F2F2F2F2F2F2F2F2F2F002F0D181E0B150E2F2F2F2F2F002F262F0100002F2F2F2F2F2F2F2F2F2F002F1D1B1219150E2F2F2F2F2F002F262F0300002FC2
:4039C0002F2F2F2F2F2F2F2F2F002F1D0E1D1B121C2F2F2F2F2F002F262F010200002F2F2F2F2F2F2F2F2F002F0D1B18191C2F2F2F2F2F2F2F2F2F2F2F2F2F002F2F2F2F84
:403A00002F2F2F2F2F2F2F292929292929292929291D11121C2F1C1D0A100E2F2F2F2F2F2F2F2F002FFF6162626262626263642F2F2F2F2F2F65642F100A160E2F65642F26
:403A4000ADADADAD2F65642F181F0E1B2F65642FADADADAD2F65666969696969696A19150E0A1C0E2F2F2929292929292F2F2F1D1B222F2F2F2F2F2929292F2F2F2F2F2F2B
:403A80000A100A1217272F2F29292929292F3E20E000F000F000F000F0002FE60FCB37473E10E000F000F000F000F000F000F000F000F000F000F0002FE60FB04FF080A903
:403AC000A1E08179E0803E30E000C9F0B2D610CB3FCB3FCB3F1100005F2100980620190520FCF0B3D608CB3FCB3FCB3F1100005F197CE0B57DE0B4C9F0B557F0B45F060489
:403B0000CB1ACB1B0520F97BD684E6FE0707C608E0B2F0B4E61F171717C608E0B3C9F0E0A7C80E03AFE0E01A47CB37E60F2028F0E0A73E0020023E2F2278E60F2021F0E01A
:403B4000A73E0020093E01B93E0028023E2F221D0D20D4AFE0E0C9F53E01E0E0F118D9F53E01E0E0F118E73EC0E0463E283D20FDC97CE0967DE0977EA7281DFE802817F08E
:403B80009667F0976F11100019F08F3DE08FC818E0AFE09518E9E09506071186FF2A12130520FAF08921642B075F1600195E23561A6F131A67131AE090131AE0915E23567E
:403BC00023F08CE0947EFEFF28C7FEFD200EF08CEE20E094237E1808131318E4FEFE28F8E089F087471A4FF08BCB772006F0908089180A78F5F09047F19099DE08E093F06D
:403C00008847131A134FF08BCB6F2006F0918089180A78F5F09147F19099DE08E092E5F08D67F08E6FF095A728043EFF1802F09322F09222F08922F09447F08BB047F08AF8
:403C4000B0227CE08D7DE08EE1C3D82A202C242C282C2C2C302C342C382C3C2C402C442C482C4C2C502C542C582C5C2C602C642C682C6C2C702C742C782C7C2C802C842C2C
:403C8000882C8C2C902C942C982C9C2CA02CA42CA82CAC2CB02CB42CB82CBC2CC02CC42CC82CCC2CC730CC2CD02CD42CD82CDC2CE02CE42CEA30EE30E82CEC2CF230F63039
:403CC000F02CF42CF82CFC2C002D042DFA30FE30042D082D082D0C2D102D142D182D1C2D202D242D282D2C2D302D342D382D3C2D402D442D482D4C2D502D542D0A310E318A
:403D00001231123102310631582DEFF0682DEFF07A2DEFF0892DEFF09A2DEFF0AC2DEFF0BD2DEFF0CB2DEFF0DC2DEFF0EB2DEFF0FC2DEFF00B2EEFF01C2EEFF02E2EEFF03F
:403D4000402EEFF0522EEFF0642EEFF0762EEFF0862EEFF0982EEFF0A82EEFF0B92EEFF0CA2EEFF0DB2EEFF00B2FEFF01C2FEFF0EC2EEFF0FA2EEFF02D2F00E8362F00E85D
:403D80003F2F00E8482F00E8512F0000552F0000592F00005D2F0000612F0000652F0000692F00006D2F0000712F0000752F0000792FF0F8842FF0F88F2FF0F0A32FF0F01F
:403DC000B82FF8F8C12FF8F8CA2FF8F8D12FF8F8D82FF0F8E32FF0F8EE2FF0F00330F0F01930F8F82230F8F82B30F8F83230F8F83930F8F84030F8F84730F8F84E30F8F894
:403E00005530F8F85C30F8F86730F8F86E30F8F87530F8F87C30F8F88330F8F88C30F8F89530F8F89E30F8F8A730F8F8B030F8F8B930F8F8C030F8F84631F0F05D31F8F864
:403E4000A931FEFEFEFEFEFEFEFE848484FE84FFA931FEFEFEFEFE84FEFEFE84FEFEFE8484FFA931FEFEFEFEFEFE84FE848484FEFFA931FEFEFEFE8484FEFEFE84FEFEFE6D
:403E800084FFA931FEFEFEFEFEFEFEFE818181FEFEFE81FFA931FEFEFEFEFE8181FEFE81FEFEFE81FFA931FEFEFEFE81FEFEFE818181FFA931FEFEFEFEFE81FEFEFE81FE56
:403EC000FE8181FFA931FEFEFEFEFEFEFEFE8A8B8B8FFFA931FE80FEFEFE88FEFEFE88FEFEFE89FFA931FEFEFEFEFEFEFEFE8A8B8B8FFFA931FE80FEFEFE88FEFEFE88FE9B
:403F0000FEFE89FFA931FEFEFEFEFEFEFEFEFE8383FEFE8383FFA931FEFEFEFEFEFEFEFEFE8383FEFE8383FFA931FEFEFEFEFEFEFEFEFE8383FEFE8383FFA931FEFEFEFEBE
:403F4000FEFEFEFEFE8383FEFE8383FFA931FEFEFEFEFEFEFEFE8282FEFEFE8282FFA931FEFEFEFEFE82FEFE8282FEFE82FFA931FEFEFEFEFEFEFEFE8282FEFEFE8282FFDF
:403F8000A931FEFEFEFEFE82FEFE8282FEFE82FFA931FEFEFEFEFEFEFEFEFE8686FE8686FFA931FEFEFEFE86FEFEFE8686FEFEFE86FFA931FEFEFEFEFEFEFEFEFE8686FEA6
:403FC0008686FFA931FEFEFEFE86FEFEFE8686FEFEFE86FFA931FEFEFEFEFE85FEFE858585FFA931FEFEFEFEFE85FEFE8585FEFEFE85FFA931FEFEFEFEFEFEFEFE858585C8
:40400000FEFE85FFA931FEFEFEFEFE85FEFEFE8585FEFE85FFC9310A251D22190EFFC9310B251D22190EFFC9310C251D22190EFFC9312F180F0F2F2FFFC93100FFC93101CA
:40404000FFC93102FFC93103FFC93104FFC93105FFC93106FFC93107FFC93108FFC93109FFD9312F012F1120213031FFD9312F03121322233233FFA9312F05FD052F2F15A5
:404080000417242526273435362FFFA9310837FD37FD081819141B28292A2B6070362FFFD931B9FDB9BAFDBAFFD93182FD8283FD83FFD931090A3A3BFFD9310B407C6FFF30
:4040C000D9312F0F2F1F5F2C2F3FFFD9316C3C4B4C5B5C6B2FFFA9312F4DFD4D2F2F5D5E4E5F6D6E2F2F7DFD7D2FFFA9310877FD77FD08187843537A7B502F2F02FD7D2F8F
:40410000FFD931B9FDB9BAFDBAFFD93182FD8283FD83FFD931090A3A3BFFD9310B407C6FFFD931DCDDE0E1FFD931DEDFE0E1FFD931DEE2E0E4FFD931DCEEE0E3FFD931E59E
:40414000E6E7E8FFD931FDE6FDE5FDE8FDE7FFD931E9EAEBECFFD931EDEAEBECFFD931F2F4F3BFFFD931F4F2BFF3FFD931C2FDC2C3FDC3FFD931C4FDC4C5FDC5FFD931DC40
:40418000FDDCEFFDEFFFD931F0FDF0F1FDF1FFD931DCFDF0F1FDEFFFD931F0FDDCEFFDF1FFD931BDBEBBBCFFD931B9BADADBFFCB30E0F0F531C0C1C5C6CCCD7576A4A5A68D
:4041C000A75455565744454647A0A1A2A39C9D9E9FFF1631F8E81C31F0E8253100002B310000313100003A3100009D310000A33100006431D8F87C31E8F88E31F0F82D324C
:40420000636465FF2D32636465666768FF2D32414141FF2D32424242FF2D32525252626262FF2D32515151616161717171FFA9312F2F2F2F2F2F2F2F6364FD64FD63666767
:40424000FD67FD66FFD9312F2F6364FFD93100FD0010FD104FFD4F80FD8080FD8081FD8197FD97FFD93198FD9899FD9980FD809AFD9A9BFD9BFFD931A8FDA8A9FDA9AAFD55
:40428000AAABFDABFFD931412F2FFFD931522F62FF000000080010001808000808081008181000100810101018180018081810181800000008001000180020002800300046
:4042C00038000000080800080810001008180018082000200828002808300030080008001008080810100010081010101818001808181018182000200820102018280028BE
:404300000828102818300030083010301838003808381038180000000800100800080808101000100810107F7F7F7F7F7F7F7F7F7F7C7C7879787BFFFFFFFFFFFFFFFFFFA4
:40434000FF000000FF0000FFFFFFFFFFFFFFFFFFFF3F3F1F9F1FDF787B78797C7C7F7F7F7F7F7F7F7F7F7F000000FF0000FFFFFFFFFFFFFFFFFFFF1FDF1F9F3F3FFFFFFF11
:40438000FFFFFFFFFFFFFF787A787A787A787A787A787A787A787A1F5F1F5F1F5F1F5F1F5F1F5F1F5F1F5FFFFFFFFFFFFFFFF8F8F0F2E1F5E3F2E6FFFFFFFFFFFFFF00002F
:4043C0000000FFFFFF0000FFFFFFFFFFFFFF1F1F0F4F87AFC74F67F2E6F2E6F2E6F2E6F2E6F2E6F2E6F2E64F674F674F674F674F674F674F674F67F2E6F5E3F2E1F8F0FF9E
:40440000F8FFFFFFFFFFFF0000FFFF00FF0000FF00FFFFFFFFFFFF4F67AFC74F871F0FFF1FFFFFFFFFFFFF787B78797C7C7F7F7F7F7C7C7879787B1FDF1F9F3F3FFFFFFF61
:40444000FF3F3F1F9F1FDF000000FF0000FFFFFFFF000000FF00000000007F00007F7F7F7F7F7F7F7F7F7F787A787A787A787A787A0002007A007A1F5F1F5F1F5F1F5F1FCD
:404480005F0040005F005F000000FF000000FF00FF000000FF0000000000003F3F3F3F303030303332333000000000FFFFFFFF00000000FF02FF2000000000FCFCFCFC0C07
:4044C0000C0C0CCC0CCC0C33303330333033303330333033323330CC0CCC4CCC0CCC0CCC0CCC8CCC0CCC0C33303330303030303F3F3F3F00000000FF04FF4000000000FF8B
:40450000FFFFFF00000000CC0CCC4C0C0C0C0CFCFCFCFC000000000000FFFFFF00FF02FF20FF00FF04FF00FF00FF02FF40FF00FF08FF01FF43FF07FF04FF40FF02FF00FF82
:4045400000FFFFFFFF0000FF00FF40FF02FF00FF10FF80FFC2FFE0FE06FE46FE06FE06FE16FE86FE06FE067F647F607F627F607F607F687F627F60FF02FF40FF00FF00FF9E
:4045800008FF80FF1FF010FF02FF20FF00FF00FF04FF00FFFF0000FF07FF13FF01FF00FF40FF00FFFF08080000FFFFFFFFFF00FF02FF20FFFF0000FFE0FFC8FF80FF00FF99
:4045C00002FF00FFFF0808FF00FF02FF40FF00FF02FF00FFF80F08F010F010F010F050F010F010F010F0100F080F0A0F080F080F080F080F090F080000007F00007F7F7F69
:404600007F7C7C7879787B000000FF0000FFFFFFFF3F3F1F9F1FDF7F7F7F7F7F7F7F7F7F7F0000007F0000000000000000AAAA0000000000000000000000000F0F1F1F388D
:404640003833303630343000000000FFFFFFFF0000FF000000000000000000F0F0F8F81C1CCC0C6C0C2C0C343034303430343034303430343034302C0C2C0C2C0C2C0C2C1E
:404680000C2C0C2C0C2C0C34303630333038381F1F0F0F00000000007B0079007C007F007F0000007F000000DF009F003F00FF00FF000000FF000000000000FF000000FFA8
:4046C000FFFFFF000000002C0C6C0CCC0C1C1CF8F8F0F0000000000808FFFFFF02FF00FF20FF00FF02FF000000FFFFFFFFFF00FF02FF20FFFF0808FF07FF13FF01FF00FFC2
:4047000040FF00FFFF0000FFE0FFC8FF80FF00FF02FF00FFFF000008080808080808080808080808080808FF00FF02FF00FF20FF02FF00FFFF0808F010FF1FF01FF01FF042
:404740001FF01FFF5FF0100000FFFF00FF00FF00FF00FFFFFF00000808FFFF00FF00FF00FF00FFFFFF08080F08FFF80FF80FF80FF80FF8FFFA0F08FF07FF43FF01FF00FF1D
:4047800000FF80FF1FF010FFE0FFC2FF80FF00FF22FF00FFF80F080000000000003C003C0000000000000000003C004E004E007E004E004E00000000007C0066007C0066E2
:4047C0000066007C00000000003C0066006000600066003C000000DD44FF44FFFF7711FF11FFFFDD44FF44FFFF7711FF11FFFFDD44FF44FFFF7711FF11FFFFDD44FF44FF88
:40480000FF7711FF11FFFF00007E001800180018001800180000000000660066003C001800180018000000FFFFF789DDA3FF81B7C9FD83D7A9FF81FFFFFF81FFBDE7A5E772
:40484000A5FFBDFF81FFFFFFFFFF81FF81FF99FF99FF81FF81FFFFFFFF8181BDBDBDBDBDBDBDBD8181FFFFFFFF81FF81FF81FF81FF81FF81FFFFFFFFFFFF81C381DF85DF44
:4048800085FFBDFF81FFFFFFFF81FFBDFFA5E7A5E7BDFF81FFFFFFFFFF8181BD83BD83BD83BD8381FFFFFFED93BFC1F58BDFA1FD83AFD1FB85DFA1FD83EF91BBC5EF91BD72
:4048C000C3F789DFA1FFFFFFFFDBA4FF80B5CAFF80DDA2F788FFFFFFFF57A8FD02DF207B84EE11BB44FFFFFF00FF00FF00FF00FF00FF00FF00FF0000FF00FF00FF00FF0017
:40490000FF00FF00FF00FFFFFFFFFFFFFFFFFFFFFFFFFFFFFFFFFFFFFF7789DF21FB05AF51FD03D729FFFF00003C0066006600660066003C000000000018003800180018FF
:404940000018003C00000000003C004E000E003C0070007E00000000007C000E003C000E000E007C00000000003C006C004C004E007E000C00000000007C0060007C000E91
:40498000004E003C00000000003C0060007C00660066003C00000000007E0006000C00180038003800000000003C004E003C004E004E003C00000000003C004E004E003E81
:4049C000000E003C00000000007C00660066007C0060006000000000007E0060007C00600060007E00000000007E00600060007C0060006000000000003C00660066006669
:404A00000066003C00000000003C00660060006E0066003E000000000046006E007E005600460046000000000046004600460046004E003C00000000003C0060003C000E24
:404A4000004E003C00000000003C0018001800180018003C0000000000600060006000600060007E000000000046004600460046002C001800000000007C00660066007C56
:404A80000068006600000000004600660076005E004E004600000000007C004E004E004E004E007C000000FFFFFF00FF00FF00FF10FF80FF02FF000000FFFFFFFFFF00FF61
:404AC00002FF20FFFF8080808080808080808080808080808080808080FFFF00FF00FF00FF00FFFFFF80808080FFFFFF00FF02FF20FF00FF00FF00FF000000000000000086
:404B0000000000000000000707181F213E477F5F7F39307B62FBB2FFA0FFC27F547F5C3F2E7F63BFF837FF01010101010101010101010101018383010101010101010101D3
:404B40000101010101FFFFFFFF0101010101010101010101018383FFFFD987D987D987D987D987D987D987D987D987D987D987D987D987D987FFFFD987D987D987D987D98D
:404B800087D987D987D987003800380038003800380038003800387C007C007C007C007C007C007F00FF000000000008000800080008001C001C000000000E011D1E062A56
:404BC0002A272710130C0D0000C0C0202010D0D010F030C8E808E8040703030C0C101035202A203F3F0C0C28E8D8C0404020205010B010F0F0C0C000E001713242343555D7
:404C0000544F4E2127181B00008080404020A0A020E06090F008C8B8B884848484FCFC929292926C6CEEEE07071F183E207F4F7F5F7070A2A2B0B0B4B464643C3C2E2E2706
:404C40002710106C7CCFB303030303030207060909161712110E0F080908080F0F080809090A0A06060E0E0303030303021F1E21214A554A750A350A1508080F0F080809B6
:404C8000090A0A06060E0E000066006C00780078006C0066000000000046002C0018003800640042000000FDFDFDFDFDFDFDFDFDFDFDFDFDFDFDFDF800E000C0008000804B
:404CC000000000000000007F001F000F0007000700030003000300000080008000C000E000F800FF00FF000300070007000F001F007F00FF00FF00FFFFFFFF00FFFFFF00A5
:404D0000FFFF0000FFFF00FF00FF00FF01FE02FE02FC04FC04FC04FF02FF01FF010101FF010101FF0101010202020203030405080911122126434C0000010102020404083B
:404D40000910132027202F879806390E711EE13CC33CC378877887404F404F809F809F809F809F809F809FF807F00FF00FF00FF00FF00FF00FF807405F404F202F202710F5
:404D8000110F0F0404070778877C833CC31EE10FF0FFFFFF00FFFFFF00FF00FF000000FF000000FF00000002000200020002000200020002000200100038007C00FE00FEED
:404DC00000FE007C00000002030101020204040D080A080F0F030328E8F0D0303008085404AC04FCFC303000000303030303020706090908080B0B0000C0C0C4C4E86890FD
:404E0000F0A8F84878F8B8000007070707070407040B0B10101717000080808080E0E090F0A8F84878B8B808080F0F08080F0F0909090906060E0EE4E422222020E0E020F8
:404E4000202020C0C0E0E0181898989898F8F89C983C3C3C3C7E7E7F00FEFE7E7EFEDA7E5A7E7EFCFCF8F8FE0EFEFE7E7EFEDA7E5A7E7EFCFCF8F8808083838383C302EF8F
:404E80002E9797474424240000C0C0C0C0C040E060F8F8E42434341714171417141C1F17170F0F1E1E0000F424F828E82838F8E8E89090707078780303030303020F0E1168
:404EC00011373771527D4EC0C0C0C0C040C040A0A01010FFFFCF337F403F3F08080F0F0909090906060E0EFCFC20202020E0E020202020C0C0E0E00303030303020706096F
:404F00000933337754734C1818D8D8D8D8F878DC58BCBC3C3C7E7E090E0707080F080F090F0A0E06060E0E0000030303030302FF7EC93F787F090F04040707B8BFC0FFFFBD
:404F4000FF0000000000000000787878787B48605FB6B08484B8B8848484848484FAFA92929E9E6767E0E000000000787878787848407EB4B084842A7B2F2F2F2F2F2F2F40
:404F80002F2F2F7B303131313131322A7C2F2F2F2F2F2F2F2F2F2F7C441C0C181B0E452A7D2F2F2F2F2F2F2F2F2F2F7D674646464646682A7B2F2F2F2F2F2F2F2F2F2F7B8B
:404FC0002F2F2F2F2F002F2A7C2F2F2F2F2F2F2F2F2F2F7C433434343434342A7D2F2F2F2F2F2F2F2F2F2F7D303131313131322A7B2F2F2F2F2F2F2F2F2F2F7B36150E1F65
:405000000E15372A7C2F2F2F2F2F2F2F2F2F2F7C362F2F2F2F2F372A7D2F2F2F2F2F2F2F2F2F2F7D404242424242412A7B2F2F2F2F2F2F2F2F2F2F7B361512170E1C372A0C
:405040007C2F2F2F2F2F2F2F2F2F2F7C362F2F2F2F2F372A7D2F2F2F2F2F2F2F2F2F2F7D333434343434352A7B2F2F2F2F2F2F2F2F2F2F7B2B38393939393A2A7C2F2F2FFA
:405080002F2F2F2F2F2F2F7C2B3B2F2F2F2F3C2A7D2F2F2F2F2F2F2F2F2F2F7D2B3B2F2F2F2F3C2A7B2F2F2F2F2F2F2F2F2F2F7B2B3B2F2F2F2F3C2A7C2F2F2F2F2F2F2F32
:4050C0002F2F2F7C2B3B2F2F2F2F3C2A7D2F2F2F2F2F2F2F2F2F2F7D2B3D3E3E3E3E3F2A7B2F2F2F2F2F2F2F2F2F2F7B303131313131322A7C2F2F2F2F2F2F2F2F2F2F7C6B
:4051000036150E1F0E15372A7D2F2F2F2F2F2F2F2F2F2F7D362F2F2F2F2F372A7B2F2F2F2F2F2F2F2F2F2F7B404242424242412A7C2F2F2F2F2F2F2F2F2F2F7C3611121029
:40514000112F372A7D2F2F2F2F2F2F2F2F2F2F7D362F2F2F2F2F372A7B2F2F2F2F2F2F2F2F2F2F7B333434343434352A7C2F2F2F2F2F2F2F2F2F2F7C2B8E8E8E8E8E8E2A63
:405180007D2F2F2F2F2F2F2F2F2F2F7D303131313131322A7B2F2F2F2F2F2F2F2F2F2F7B361512170E1C372A7C2F2F2F2F2F2F2F2F2F2F7C362F2F02052F372A7D2F2F2FD0
:4051C0002F2F2F2F2F2F2F7D333434343434352A7B2F2F2F2F2F2F2F2F2F2F7B2B38393939393A2A7C2F2F2F2F2F2F2F2F2F2F7C2B3B2F2F2F2F3C2A7D2F2F2F2F2F2F2FC0
:405200002F2F2F7D2B3B2F2F2F2F3C2A7B2F2F2F2F2F2F2F2F2F2F7B2B3B2F2F2F2F3C2A7C2F2F2F2F2F2F2F2F2F2F7C2B3B2F2F2F2F3C2A7D2F2F2F2F2F2F2F2F2F2F7D62
:405240002B3D3E3E3E3E3F003C666666663C000018381818183C00003C4E0E3C707E00007C0E3C0E0E7C00003C6C4C4E7E0C00007C607C0E4E3C00003C607C66663C0000AF
:405280007E060C18383800003C4E3C4E4E3C00003C4E4E3E0E3C00003C4E4E7E4E4E00007C667C66667C00003C666060663C00007C4E4E4E4E7C00007E607C60607E000074
:4052C0007E60607C606000003C66606E663E000046467E46464600003C181818183C00001E0C0C6C6C380000666C78786C66000060606060607E0000466E7E564646000020
:405300004666765E4E4600003C666666663C00007C66667C606000003C62626A643A00007C66667C686600003C603C0E4E3C00007E18181818180000464646464E3C000023
:40534000464646462C1800004646567E6E460000462C18386442000066663C18181800007E0E1C38707E0000000000006060000000003C3C0000000000221408142200008B
:405380000036365F495F417F413E221C140808FFFFFF81C1BFC1BFC1BFC1BF81FFFFFFAAAA0000000000000000000000000000FEFEFEFEFEFEFEFEFEFEFEFEFEFEFEFE7F2A
:4053C0007F7F7F7F7F7F7F7F7F7F7F7F7F7F7FFF00FF40FF02FF00FF10FF80FF02FF00F010FF1FFF00FF40FF00FF02FF40FF000F08FFF8FF00FF02FF00FF40FF02FF00008A
:4054000000000000000000000000000000000000000000181838381818181818183C3C000000003C3C4E4E4E4E3E3E0E0E3C3C000000003C3C4E4E3C3C4E4E4E4E3C3C00C8
:405440000038384444BABAA2A2BABA44443838C6C6E6E6E6E6D6D6D6D6CECECECEC6C6C0C0C0C00000DBDBDDDDD9D9D9D9D9D90000303078783333B6B6B7B7B6B6B3B300E8
:405480000000000000CDCD6E6EECEC0C0CECEC0101010101018F8FD9D9D9D9D9D9CFCF8080808080809E9EB3B3B3B3B3B39E9EFF00FF00FF00EF00FF00FF00FF00FF00FF45
:4054C00000FF00FF00E700E700FF00FF00FF0000FFFFFF00FF00FFFF0000FFFF00FF0000FFFFFF01FF02FEFE0204FCFC04FC0400FFFFFF80FF407FFF40E03FFF20BF60FF19
:4055000000FF00FF01FE02FE02FC04FC04FC04FF00FF00FF807F40FF40FF20FF20BF60FFFFFFFFFFFFFFFFFFFFFFFF00000000FF02FF01FF01FF01FF01FF01FF01FF017F20
:40554000C0FF80FF80FF80FF80FF80FF80FF80FE02FE02FF03FC05F809F112E126C34C7FC07FC0FFC0BF609F70AF5827DC33CEFF00FF01FE02FC04F809F013E027E02F87BF
:405580009806390E711EE13CC33CC37887788735CB32CD3AC57986788778877C837C83FF00FF807FC03FE09F704FB8679C37CCC04FC04F809F809F809F809F809F809FF8D9
:4055C00007F00FF00FF00FF00FF00FF00FF8077C837E817E813EC13FC01FE01FE01FE033CE1BE609F70DF30DF30DF30DF309F7C05FC04FE02FE027F011BF4F0CF407FF78E0
:40560000877C833CC31EE10FF0FFFFFF00FFFF0FF00FF00EF10EF106F9FFFFC53FFFFF1BE613EE37CC27DC4FB8FCF3FCA3E0FFFE02FE02BF431CE5B849B152A16643CCFF59
:4056400000FF00FF00FF00FF00FF00EF10C738FF00FB04FB04FB04FB04F10EF10EF10E837C01FE01FE01FE837CFF00837C837CF10EE01FE01FE01FE01FE01F807F807FF752
:4056800008EB14F708F708E31CE31C639C01FE0000606070707878787870706060000000003030707030303030303078780000E0E0F0E0FBE0FCE0FCE1FCE1FCE1FCE100BE
:4056C000000000FF00000000FF00000000000007070F07DF073F073F873F873F873F87FCE1FCE1FCE1FCE1FCE1FCE1FCE1FCE13F873F873F873F873F873F873F873F87FC30
:40570000E1FCE1FCE1FCE1FCE0FFE7FFEFE0FF00000000000000FF0000FFFFFFFF00FF3F873F873F873F873F07FFE7FFF707FFF800E000C000800080000000000000007F11
:40574000001F000F0007000700030003000300000080008000C000E000F800FF00FF000300070007000F001F007F00FF00FF00010101018181C1C1C1C1E1E1F1F1F9F9FEF4
:40578000FEFEFEFEFEFEFEFEFEFEFEFEFEFEFE7E7E7F7F7F7F7F7F7F7F7F7F7F7F7F7F7F7F3F3F9F9F8F8FCFCFE7E7F3F3F7F7E0E0E0E0E0E0E0E0E0E0C0C0C0C08080F051
:4057C000F0F0F0F0F0F0F0F0F0F0F0F0F0F0F000007C7C474741414040404040407F400000010101018181C1C141416161E1610000FEFE06060606060606060606FE060008
:40580000001B1B323259594C4C8C8C8686FF830000FFFF010101018181414141413F210000BEBE88888888888888888080808000008888D8D8A8A888888888000000007F0B
:40584000407F407F407F407F407F407F40477FE161E161E161E161E161C1C1C1C18181FE06FE06FE06FE06FE06FE06FE0606FEFF83FF817F407F407F403F203F20101F1FED
:40588000119F91CFC9C7C5E363F333F91908F8808080808080808080808080808080805F7F78786060507050704878447C7E7E010101010101010101010101010101010665
:4058C000FE06FE06FE06FE06FE06FE06FEFEFE080F444764677273517159794C7C7E7E0CFC06FE03FF01FF01FF00FF80FF7F7F00000000000080808080C0C0C0C0E0E07E24
:405900007E7F7F7F7F7F7F7F7F7F7F7F7F7F7F000003030202020202020202020203020000FBFB0A0A1212222222224242C3420000FDFD0D0D0C0C0C0C0C0C0C0CFC0C001D
:4059400000FCFC0C0C8C8C4C4C4C4C2C2C3C2C0302030203030303020200000000000083828382030203020302030203020203FC0CFC0CFC0CFC0CFC0CFC0CFC0C0CFC1C71
:405980001C1C1C0C0C0C0C0404000000000000020302030203020302030203020303030CFC0CFC0CFC0CFC0CFC0CFC0CFCFCFC03030303030303030303030303030303FCD6
:4059C000FCFCFCFCFCFCFCFCFCFCFCFCFCFCFCFF00FF00FF00FF00FF00FF00FF00FF0000FF00FF00FF00FF00FF00FF00FF00FFFFFFFFFFFFFFFFFFFFFFFFFFFFFFFFFF0003
:405A0000000101030307070F0F1F1F3F3F7F7F0000FFFF83838383838383838383FF8300007F7F2020101008080404020201010000F3F332323232323232323232F332FF60
:405A400083FF83FF83FF83FF83FF83FF8383FF000000000101030307070F0B1F13233FF3B2737233331313020200000000000083FF83FF83FF83FF83FF83FF83FFFFFF4368
:405A80007F233F131F0B0F070703030101000000000000000000000000101030307070000078789C9C1C1C7878E0E0FCFC0000FF0000000000000000000000000000001B21
:405AC0001B1B1B090900000000000000000000000000000000000060606060202000001B1B1B1B0909000000006060606000002F2F2F2F2F2F2F2F2F2F2F2F2F2F2F2F2F66
:405B00002F2F2F9B1D162F0A170D2F33010908072F0E15181B109C2F1D0E1D1B121C2F15120C0E171C0E0D2F1D182F2F2F2F2F0B1E15150E1D25191B18180F2F2F2F2F2F33
:405B40002F2F2F1C180F1D200A1B0E2F0A170D2F2F2F2F2F2F2F1C1E0B2515120C0E171C0E0D2F1D182F2F2F2F2F2F2F2F1712171D0E170D18242F2F2F2F2F2F2F2F2F2FC9
:405B80002F2F2F2F2F2F2F2F2F2F2F2F2F2F2F2F33010908092F0B1E15150E1D25191B18180F2F2F2F2F2F2F2F1C180F1D200A1B0E242F2F2F2F2F2F2F2F33303132312FA4
:405BC0003435363738392F2F2F2F2F2F2F2F2F2F2F2F2F2F2F2F2F2F2F2F2F2F2F2F2F0A15152F1B1210111D1C2F1B0E1C0E1B1F0E0D242F2F2F2F2F2F2F2F2F2F2F2F2F7F
:405C00002F2F2F2F2F2F2F2F2F181B121012170A152F0C18170C0E191D9C2F2F0D0E1C1210172F0A170D2F191B18101B0A162F0B222F0A150E210E222F190A2311121D1704
:405C4000181F9D2F2F2F2F2F2F2F2F2F2F2F2F2F2F2F2F2F2F2F2F8E8E8E8E8E8E8E8E8E8E8E8E8E8E8E8E8E8E8E8E5A5B5B5B5B5B5B5B5B5B5B5B5B5B5B5B5B5B5B5C5D13
:405C800080818283909192818283906C6D6E6F7071725E5D84858687939495858687937374757677782F5E5D2F88892F96979888892F96797A7B7C7D7E2F5E5D2F8A8B2F63
:405CC0008E8F6B8A8B2F8E7F666768696A2F5E5F606060606060606060606060606060606060618E3C3C3C3C3C3C3C3C3C3C3C3C3C3D3E3C3C3C8E8E8C8C62638C8C3A8C16
:405D00008C8C8C8C3A42433B8C8C8E8E3A8C64658C8C8C8C3B8C8C8C8C44458C8C8C8E8E8C8C8C8C8C8C8C8C8C8C8C8C464748493F408E8E8C8C8C8C3A8C8C8C8C53548C7C
:405D40004A4B4C4D42438E8E8C8C8C8C8C8C8C8C545556574E4F505152458E41414141414141414141414141414141414141412F2F5919150A220E1B2F2F2F9919150A226D
:405D80000E1B2F2F2F9A9A9A9A9A9A9A2F2F2F9A9A9A9A9A9A9A2F2F2F2F2F33303132312F3435363738392F2F2F2F2F2F2F2F2F2F2F2F2F2F2F2F2F2F2F2F2F2F2F2F472D
:405DC000484848484848484848484848484848484848494A2C2C2C2C2C2C2C2C2C2C2C2C2C2C2C2C2C2C4B4A2C2C2C50515151515151515151522C2C2C2C4B4A2C2C2C5338
:405E0000100A160E2F1D22190E542C2C2C2C4B4A2C55566D5858585858A95858586E56565A2C4B4A2C5B78777E7F9A9B2FAA79777E7F9A9B5C2C4B4A2C2D4F4F4F4F4F4F21
:405E40004FAC4F4F4F4F4F4F2E2C4B4A2C2C2C2C2C2C2C2C2C2C2C2C2C2C2C2C2C2C4B4A2C2C2C2C2C2C2C2C2C2C2C2C2C2C2C2C2C2C4B4A2C2C2C505151515151515151A8
:405E80005151522C2C2C4B4A2C2C2C53161E1C120C2F1D22190E542C2C2C4B4A2C55566D5858585858A9585858586E565A2C4B4A2C5B78777E7F9A9B2FAA79777E7F9A9B07
:405EC0005C2C4B4A2C7172727272727272AB727272727272742C4B4A2C5B7A777E7F9A9B2FAA2F9D9C9C2F2F5C2C4B4A2C2D4F4F4F4F4F4F4FAC4F4F4F4F4F4F2E2C4B4A45
:405F00002C2C2C2C2C2C2C2C2C2C2C2C2C2C2C2C2C2C4B4C4D4D4D4D4D4D4D4D4D4D4D4D4D4D4D4D4D4D4E47484848484848484848484848484848484848494A2F0A251D95
:405F400022190E2F2C2C2C2C2C2C2C2C2C2C4B4A2C2C2C2C2C2C2C2C2C2C2C2C2C2C2C2C2C2C4B4A2C2C2C2C2C505151515151522C2C2C2C2C2C4B4A2C2C2C2C2C53150EAD
:405F80001F0E15542C2C2C2C2C2C4B4A2C2C2C555657586C586C5859565A2C2C2C2C4B4A2C2C2C5B906F916F926F936F945C2C2C2C2C4B4A2C2C2C7172737273727372735B
:405FC00072742C2C2C2C4B4A2C2C2C5B956F966F976F986F995C2C2C2C2C4B4A2C2C2C2D4F6B4F6B4F6B4F6B4F2E2C2C2C2C4B4A2C2C2C50515151515151515151522C2C95
:406000002C2C4B4A2C2C2C531D1819251C0C181B0E542C2C2C2C4B4A5556706D5858585858585858586E5656565A4B4A5B016F6060606060602F2F6060606060605C4B4A8E
:406040005B026F6060606060602F2F6060606060605C4B4A5B036F6060606060602F2F6060606060605C4B4A2D4F6B4F4F4F4F4F4F4F4F4F4F4F4F4F4F2E4B4C4D4D4D4DB7
:406080004D4D4D4D4D4D4D4D4D4D4D4D4D4D4E47484848484848484848484848484848484848494A2F0B251D22190E2F2C2C2C2C2C2C2C2C2C2C4B4A2C2C2C2C2C2C2C2CD1
:4060C0002C2C2C2C2C2C2C2C2C2C4B4A2C2C505151515151522C2C5051515151522C4B4A2C2C53150E1F0E15542C2C5311121011542C4B4A555657586C586C5859565A75FD
:40610000586C586C6E5A4B4A5B906F916F926F936F945C5B906F916F925C4B4A7172737273727372737274717273727372744B4A5B956F966F976F986F995C5B936F946FE9
:40614000955C4B4A2D4F6B4F6B4F6B4F6B4F2E2D4F6B4F6B4F2E4B4A2C2C2C50515151515151515151522C2C2C2C4B4A2C2C2C531D1819251C0C181B0E542C2C2C2C4B4AC4
:406180005556706D5858585858585858586E5656565A4B4A5B016F6060606060602F2F6060606060605C4B4A5B026F6060606060602F2F6060606060605C4B4A5B036F607E
:4061C00060606060602F2F6060606060605C4B4A2D4F6B4F4F4F4F4F4F4F4F4F4F4F4F4F4F2E4B4C4D4D4D4D4D4D4D4D4D4D4D4D4D4D4D4D4D4D4ECDCDCDCDCDCDCDCDCD45
:40620000CD8CC9CA8C8C8C8C8C8C8C8CCBCC8C8C8C8C8C8CCED7D7D7D7D7D7D7D7D7CF2F2F2F2F2F2F2F2F2FD02F2F2F2F2F2F2F2FD1D22F2F2F2F2F2F2F2FD3D47C7C7CE2
:406240007C7C7C2F2FD5D67D7D7D7D2F2F2F2FD82F7B7B7B7B2F2F2F2FD82F7C7C7C7C2F2F2F2FD82F2F2F2F2F2F2F2F2FD82F2F2F2F2F2F2F7C7C7C7C2F2F2F2F2F2F2FB6
:406280002F2F7C7D7D2F2F2F2F2F2F2F7D2F2F2FD92F2F2F2F2F7BB7B8D9B72F7C7C7C7C7C7D7D7D7D7D7D7D7D7D7DFF4A4A4A4A4A4A59696969696969494A4A4A4A4A4A6D
:4062C0005A5A5A5A5A5A85858585858585855A5A3839385A6A6A6A6A6A6A6A6A6A6A6A6A6A6A6A6A6A6A6A6A070707070707070707070707070707070707070747484848B0
:40630000484848484848484848484848484848494A2C2C2C2C2C2C2C2C2C2C2C2C2C2C2C2C2C2C4B4A2C2C160A1B12182F1F1C24151E1210122C2C4B4A2C2C2C2C2C2C2C12
:406340002C2C5051515151522C2C2C4B4A2C2C2C2C2C2C2C2C2C5311121011542C2C2C4B4A2C2C5556565A2C2C2C75586C586C6E5A2C2C4B4A2C2C5B2F2F5C2C2C2C5B9071
:406380006F916F925C2C2C4B4A2C2C5B2F2F5C2C2C2C717273727372742C2C4B4A2C2C2D4F4F2E2C2C2C5B936F946F955C2C2C4B4A2C2C160A1B12182C2C2D4F6B4F6B4F7C
:4063C0002E2C2C4B4A2C2C2C2C2C2C2C2C2C5051515151522C2C2C4B4A2C2C2C2C2C2C2C2C2C5311121011542C2C2C4B4A2C2C5556565A2C2C2C75586C586C6E5A2C2C4BC8
:406400004A2C2C5B2F2F5C2C2C2C5B906F916F925C2C2C4B4A2C2C5B2F2F5C2C2C2C717273727372742C2C4B4A2C2C2D4F4F2E2C2C2C5B936F946F955C2C2C4B4A2C2C156D
:406440001E1210122C2C2D4F6B4F6B4F2E2C2C4B4C4D4D4D4D4D4D4D4D4D4D4D4D4D4D4D4D4D4D4E8EB22F2F2F2F2F2F2F2F2F2FB3303131313131328EB02F2F2F2F2F2F35
:406480002F2F2F2FB5362F2F2F2F2F378EB02F2F2F2F2F2F2F2F2F2FB5362F2F2F2F2F378EB02F2F2F2F2F2F2F2F2F2FB5404242424242418EB02F2F2F2F2F2F2F2F2F2F4A
:4064C000B536111210112F378EB02F2F2F2F2F2F2F2F2F2FB5362F2F2F2F2F378EB02F2F2F2F2F2F2F2F2F2FB5333434343434358EB02F2F2F2F2F2F2F2F2F2FB52B8E8EA1
:406500008E8E8E8E8EB02F2F2F2F2F2F2F2F2F2FB5303131313131328EB02F2F2F2F2F2F2F2F2F2FB5361512170E1C378EB02F2F2F2F2F2F2F2F2F2FB5362F2F2F2F2F3744
:406540008EB02F2F2F2F2F2F2F2F2F2FB5333434343434358EB02F2F2F2F2F2F2F2F2F2FB52B38393939393A8EB02F2F2F2F2F2F2F2F2F2FB52B3B2F2F2F2F3C8EB02F2FD9
:406580002F2F2F2F2F2F2F2FB52B3B2F2F2F2F3C8EB02F2F2F2F2F2F2F2F2F2FB52B3B2F2F2F2F3C8EB02F2F2F2F2F2F2F2F2F2FB52B3B2F2F2F2F3C8EB12F2F2F2F2F2FA9
:4065C0002F2F2F2FB42B3D3E3E3E3E3F0707070707078487878C87878C87878C87878607071E1E1E1E1E792F2F8D2F2F8D2F2F8D2F2F880707B4B5BB2EBC792F2F8D2F2FDA
:406600008D2F2F8D2F2F880707BFBFBFBFBF898A8A8E8A8A8E8A8A8E8A8A8B0706060606060606060606060606060606060606061616161616161616161616161616161646
:40664000161616160707070707078487878C87878C87878C87878607071E1E1E1E1E792F2F8D2F2F8D2F2F8D2F2F880707BDB22EBE2E792F2F8D2F2F8D2F2F8D2F2F880730
:4066800007BFBFBFBFBF898A8A8E8A8A8E8A8A8E8A8A8B070101010101010202030301010101020200000000000000000707181F213E477FF2FE121E121E121E7E7EFF8383
:4066C000FF81FFFF00000000000000000707181F213E477F04FC02FE02FE07FD07FD1FFFFFFFFFFA0000000000000000000000000707181FFFFF7711FF11FFFFDD44FF4458
:40670000FFFF7711FFFFFFFFFFFFFFFFFFFFFFFFFFFFFFFF0000030305040303000018182C241A1A080840400707181FA0BF3B3F7C447C4410100202E0E018F805FD8CFC6E
:4067400078486C7400000707181F203F303F1F1D3E223E2280808080808080800000C0C0E0E0E0E000007C7C666666667C7C60606060000000003C3C60603C3C0E0E4E4EFA
:406780003C3C000007071F183E207F4F7F5F7070A2A2B0B0040407040404040D040D0404040403025F7F39307B62FBB2FFA0FFC27F547F5C0000000000000303040408083F
:4067C000090904045F7F39307B62FBB2FFA0FFC27F547F5C18F804FC02FE02FE07FD07FDFFFFFFFA203F407F407FE0BFE0BFF8FF7F7F7F5FFF11FFFFDD44FF44FFFF7711AB
:40680000FF11FFFF0000000000000000000000008080C040000000000000040408081C1414140808181F203F407F407FE0BFE0BF7F7F7F5FDD44FF44FFFF7711FF11FFFFA4
:40684000DD44FF44000000000000202010103828282890900000464646467E7E464646464646000000007E7E181818181818181818180000FFFFFFFFFFFFFFFFFFFFFFFFEC
:40688000000000EEB4B464643C3C2E2E27277070FC9CF79F000000000000010101010202020202023F2E7F63FF98F71FF71CF7D7343FACBF030301010101000000000606A9
:4068C00005050707FFAEFF23FF18F79FF79C7757343F6C7F000000000000010101010202020202023F2F7F7CF79CF31FF01FF0DF303FA0BFFFF4FF3EEF38CFF80FFB0EFA4B
:406900000CFC04FCE020E020E020C0408080000000000000000000000000000001010101020202023F2F3F3C775CF39FF01FF01FF0FF203FFFF4FF3EEF38CFF90EFA0EFA5A
:406940000CFC04FCC040C040C04080800000000000000000F71CF734F7BF6C7F101F505F323FF1FF00004646464656567E7E6E6E4646000000003C3C181818181818181891
:406980003C3C00000000000000000000000000000000000002020101000000000000000000000000407FC0FF203F223F111F727EBFBFFFFF0707060706070607070700003C
:4069C00000000000C0FF00FF00FF02FFFFFF00000000000002020101000000000000000000000000407FC0FF203F203F111F727EFFFFFFFF02FE02FE04FC04FC88F84E7E31
:406A0000FFFFFFFF0000000080804040000000000000070700000000FF00FD02CD3209F608F700FF00000000FF00FF00FF00FC03CC3308F77C443F3F101F101F121F191FD3
:406A40003F3F3E3ECEF28EDA09F909F94EFE98F8FCFC7C7C07071F183E207F4F7F5F7070A2A2B0B000004646666676765E5E4E4E4646000000001818181818181818000069
:406A800018180000121E121E121E121E7E7EBF83FF81FFFF0000E0E018F804FC0CFCF8C82C342E32000046464646464646462C2C18180000000036365F495F417F413E2246
:406AC0001C140808FE02FD05FD05FF1FFFFCFFFEEF38EF3900040004000401050105030706060C0CCAC0C8C0CAC08880888708000A0008006F132F136F132F112DD12C101A
:406B00006C102C10A020A020A020A0A0A0A0E0E06060303008A8081808A8084808A8081808A8084800FE00FF7FFF7FC17FC17FEB7FC101FF000000000000FF000000FF00BA
:406B40000000FF0010100B0B070407040302010100000000B4B4E4E4BCBCEE6EE727F010FC9C775F0000000007071F183F207F407F407F400000000000008080C040C04062
:406B8000C040808002030504070404070407040604050407CEFA0CFC08F808F808F808F808F888F8003C007E106724C324C324C324C334C3003C006600E72CC33CC33CC3FE
:406BC0003C42186600000000000020209090B8A8A8A810100A100608020400040004000400040004175028602A6028602A60286028676860DE2B2E176E172E176E172E17DB
:406C00002ED72E179848B050A060A020A020A020A020A02008A8081808A8084808B8083F08BF097F007F00FF7EFF7EC17EC17EEB7EC100FF00000000FF00FF00FF00FF0028
:406C4000FF00FF000000383834243C243F273C273C273F2F373C1714171F1C1FF0FF00FF02FFFFFFBFA0BFA0BFB87F7F2F2F7F7FF79CF79CFD05FD05FD1DFFFFF7F4FFFE9F
:406C8000EF38EF38010101010101020202020202010100000202020201010000000000000000000034C33C433C43186618660876083608341826182418240834001800086D
:406CC0000008000800000F0F1F103C2070407343674C3F2800008080DC5C3E2232E2B1C1C34B277C0000000000000000E0E0D010D0D0E0205C507C5039307C4CEE82C084EF
:406D0000604331261F3CBB62F1416141C303F704EE089C609010080818183C64F2C2E3603920F20000FF00FFFFFFFF00FF00FF0000FF00FFFFFFFF00FFFF00FF00FFFFFFAA
:406D4000FFFFFFFF3838000000000000000000000000000000000000000000000E0E111111111212F31FF03FF0BF607F101F505F303FF1FFCFFB0CFC08F808F808F808F845
:406D800008F888F84E7AC9D909F90EFE48F898F8FCFC7C7CA0BF407FE0FF203F111F727EFFFFFFFF003C001C001C0018000800000000000000FF00AB005500FF0000000011
:406DC0000000000000150018001500120015001800150012404040C040404040404040C0404040400E320E320E320E320F338FB3CEF3EE7300000000000000000000000045
:406E00008080C04000000000808047471F183F207F407F407F40BFA0BFA0BFB87F7F3F3F777CF79CF2E6F2E6F2E6F2E6F2E6F2E6F2E6F2E6000001010101010102020202EC
:406E400002020101F39FF01FF03FE0BF707F101F505F313F3E221F1F101F101F121F191F3F3F3E3E121E121E121E121E7E7EFF83FF81FFFF01010101010102020202020233
:406E80000101000060E08080808080808080808080808080070407040704070407040704070407040B090B0A0F0A1712171C141717142F24000070708F8F989FE0FFF09F4E
:406EC00078577F4C3B2FD0DFF0FFC0FFC0FFFFFF00000000FFFFFFFFFFFFFFF8F8F0F2E1F5E3F2E6FFFFFF81C381DF85DF85FFBDFF81FFFFFFFFFFFFFFFFFF1F1F0F4F8738
:406F0000AFC74F67FFFFFFFFFFFFFF00000000FFFFFF00004F674F674F674F674F674F674F674F67F2E6F5E3F2E1F8F0FFF8FFFFFFFFFFFF0000FFFF00FF0000FF00FFFF29
:406F4000FFFFFFFF4F67AFC74F871F0FFF1FFFFFFFFFFFFFFFFFFFFFFFFFFF00000000EFE7CF240C240C240C240C240C240C240C240C240C240CE7CF00EF0000FF00FFFFAD
:406F8000FFFFFFFF0707181F213E477F5F7F39307B62FBB2E0E018F8847CE2FEFAFE9C0CDE46DF4DFFA0FFC27F547F5C3F2E3F231F180707FF05FF43FE2AFE3AFC74FCC402
:406FC000F818E0E007071F183E207F4F7F5F7070A2A2B0B0E0E0F8187C04FEF2FEFA0E0E45450D0DB4B464643C3C2E2E272710100C0C03032D2D26263C3C7474E4E4080888
:407000003030C0C02F242F242F242F24677CBCA7FFE41B1B000000000101010103030303030207040407070407040404060605050505060607040704040704040404070711
:407040000707060606060606040407070505030305050E0E0F1F011001100110010801070409000F0801F8F14EC102C78CBD84AD62CF7EFEEC90EF9FFAF7DAE7BDBDB5AD7B
:40708000D2EF7F7FF8F818E83888B808B010E0E0D030F0F0181830306060C0C0C0C0FFFF838360620A000800080708000801F8F1F8F108016C102C102CD12C11AC90EF9F62
:4070C000EF9FEC9018180C0C06C603C30303FFFFC1C106460004000C0210021002100210021002100C4C0C4C09490B4B0A4A1050125210507E337E33BE93FED37E533E0BF0
:407100007E4B3E0BA0209030984898489848984898489848000000000000000001010101020202020202020202020001020202020202020302030202020202030202060631
:407140000E0A0E0A0B0A0B0A0F0A0A0A06060A0A1A121F1F000000001F1F3F207F477C4C7C4C7C4C00000000E0E0F030F818F898F898F8987F4F7F407F4F7C4C7C4C7C7CC0
:4071800000000000F898F818F898F898F898F8F80000000000007C7C4E4E4E4E4E4E4E4E7C7C000000007E7E60607C7C606060607E7E0000000046464646464646464E4E33
:4071C0003C3C000000003C3C66666060606066663C3C0000000046466E6E7E7E565646464646000000003C3C4E4E4E4E7E7E4E4E4E4E0000FF000000000000000000000004
:407200000000000000000000000000000101FF0101FFFFFF0000000000000000F0F0F0B0F0B0F0F0000000000707181F203F303F18173F2C7B4F705F909F909F707F111F8B
